{"abi":[{"type":"function","name":"deployBirthdayContract","inputs":[{"name":"payloads","type":"bytes","internalType":"bytes"}],"outputs":[{"name":"newContract","type":"address","internalType":"address"}],"stateMutability":"payable"},{"type":"function","name":"lastBirthdayContract","inputs":[],"outputs":[{"name":"","type":"address","internalType":"contract Birthday"}],"stateMutability":"view"}],"bytecode":{"object":"0x6080604052348015600e575f5ffd5b50611ffa8061001c5f395ff3fe608060405260043610610028575f3560e01c8063883db4ff1461002c578063b6e536ab1461005c575b5f5ffd5b610046600480360381019061004191906106ad565b610086565b6040516100539190610737565b60405180910390f35b348015610067575f5ffd5b5061007061034d565b60405161007d91906107ab565b60405180910390f35b5f6100918383610371565b5f5f5f5f61009f8787610445565b93509350935093503373ffffffffffffffffffffffffffffffffffffffff168273ffffffffffffffffffffffffffffffffffffffff1614610115576040517f08c379a000000000000000000000000000000000000000000000000000000000815260040161010c9061081e565b60405180910390fd5b5f61012088886104f1565b905080516020820181815ff0975050505f73ffffffffffffffffffffffffffffffffffffffff168673ffffffffffffffffffffffffffffffffffffffff160361019e576040517f08c379a000000000000000000000000000000000000000000000000000000000815260040161019590610886565b60405180910390fd5b855f5f6101000a81548173ffffffffffffffffffffffffffffffffffffffff021916908373ffffffffffffffffffffffffffffffffffffffff1602179055505f5f9054906101000a900473ffffffffffffffffffffffffffffffffffffffff1673ffffffffffffffffffffffffffffffffffffffff166370f0d09184846040518363ffffffff1660e01b81526004016102389291906108bc565b5f604051808303815f87803b15801561024f575f5ffd5b505af1158015610261573d5f5f3e3d5ffd5b505050506001151585151503610335578334146102b3576040517f08c379a00000000000000000000000000000000000000000000000000000000081526004016102aa9061092d565b60405180910390fd5b5f5f9054906101000a900473ffffffffffffffffffffffffffffffffffffffff1673ffffffffffffffffffffffffffffffffffffffff1663af271168856040518263ffffffff1660e01b81526004015f604051808303818588803b158015610319575f5ffd5b505af115801561032b573d5f5f3e3d5ffd5b5050505050610342565b5f341115610341575f5ffd5b5b505050505092915050565b5f5f9054906101000a900473ffffffffffffffffffffffffffffffffffffffff1681565b6101445f369050146103b8576040517f08c379a00000000000000000000000000000000000000000000000000000000081526004016103af90610995565b60405180910390fd5b5f828260a09060c0926103cd939291906109bb565b8101906103da9190610a28565b90505f6301e1853e426103ed9190610aad565b6107b26103fa9190610add565b90508082101561043f576040517f08c379a000000000000000000000000000000000000000000000000000000000815260040161043690610b5a565b60405180910390fd5b50505050565b5f5f5f5f5f86865f9060209261045d939291906109bb565b81019061046a9190610bad565b90505f8787602090604092610481939291906109bb565b81019061048e9190610a28565b90505f88886040906060926104a5939291906109bb565b8101906104b29190610c13565b90505f89896060906080926104c9939291906109bb565b8101906104d69190610c68565b90508383838397509750975097505050505092959194509250565b60605f6040518060200161050490610637565b6020820181038252601f19601f8201166040525090505f848460809060a09261052f939291906109bb565b868660a09060c092610543939291906109bb565b888860c09060e092610557939291906109bb565b8a8a60e090809261056a939291906109bb565b604051602001610581989796959493929190610e95565b60405160208183030381529060405290508051826054815181106105a8576105a7610f5e565b5b602001015160f81c60f81b60f81c60ff166105c39190610add565b60f81b826054815181106105da576105d9610f5e565b5b60200101907effffffffffffffffffffffffffffffffffffffffffffffffffffffffffffff191690815f1a905350808260405160200161061b929190610fd3565b6040516020818303038152906040529150819250505092915050565b610fce80610ff783390190565b5f5ffd5b5f5ffd5b5f5ffd5b5f5ffd5b5f5ffd5b5f5f83601f84011261066d5761066c61064c565b5b8235905067ffffffffffffffff81111561068a57610689610650565b5b6020830191508360018202830111156106a6576106a5610654565b5b9250929050565b5f5f602083850312156106c3576106c2610644565b5b5f83013567ffffffffffffffff8111156106e0576106df610648565b5b6106ec85828601610658565b92509250509250929050565b5f73ffffffffffffffffffffffffffffffffffffffff82169050919050565b5f610721826106f8565b9050919050565b61073181610717565b82525050565b5f60208201905061074a5f830184610728565b92915050565b5f819050919050565b5f61077361076e610769846106f8565b610750565b6106f8565b9050919050565b5f61078482610759565b9050919050565b5f6107958261077a565b9050919050565b6107a58161078b565b82525050565b5f6020820190506107be5f83018461079c565b92915050565b5f82825260208201905092915050565b7f596f7520617265206e6f742074686520676966742067697665720000000000005f82015250565b5f610808601a836107c4565b9150610813826107d4565b602082019050919050565b5f6020820190508181035f830152610835816107fc565b9050919050565b7f4465706c6f796d656e74206661696c65640000000000000000000000000000005f82015250565b5f6108706011836107c4565b915061087b8261083c565b602082019050919050565b5f6020820190508181035f83015261089d81610864565b9050919050565b5f819050919050565b6108b6816108a4565b82525050565b5f6040820190506108cf5f830185610728565b6108dc60208301846108ad565b9392505050565b7f496e636f7272656374206769667420616d6f756e7400000000000000000000005f82015250565b5f6109176015836107c4565b9150610922826108e3565b602082019050919050565b5f6020820190508181035f8301526109448161090b565b9050919050565b7f496e76616c69642063616c6c64617461206c656e6774680000000000000000005f82015250565b5f61097f6017836107c4565b915061098a8261094b565b602082019050919050565b5f6020820190508181035f8301526109ac81610973565b9050919050565b5f5ffd5b5f5ffd5b5f5f858511156109ce576109cd6109b3565b5b838611156109df576109de6109b7565b5b6001850283019150848603905094509492505050565b5f819050919050565b610a07816109f5565b8114610a11575f5ffd5b50565b5f81359050610a22816109fe565b92915050565b5f60208284031215610a3d57610a3c610644565b5b5f610a4a84828501610a14565b91505092915050565b7f4e487b71000000000000000000000000000000000000000000000000000000005f52601260045260245ffd5b7f4e487b71000000000000000000000000000000000000000000000000000000005f52601160045260245ffd5b5f610ab7826109f5565b9150610ac2836109f5565b925082610ad257610ad1610a53565b5b828204905092915050565b5f610ae7826109f5565b9150610af2836109f5565b9250828201905080821115610b0a57610b09610a80565b5b92915050565b7f59656172206d757374206e6f7420626520696e207468652070617374000000005f82015250565b5f610b44601c836107c4565b9150610b4f82610b10565b602082019050919050565b5f6020820190508181035f830152610b7181610b38565b9050919050565b5f8115159050919050565b610b8c81610b78565b8114610b96575f5ffd5b50565b5f81359050610ba781610b83565b92915050565b5f60208284031215610bc257610bc1610644565b5b5f610bcf84828501610b99565b91505092915050565b5f610be2826106f8565b9050919050565b610bf281610bd8565b8114610bfc575f5ffd5b50565b5f81359050610c0d81610be9565b92915050565b5f60208284031215610c2857610c27610644565b5b5f610c3584828501610bff565b91505092915050565b610c47816108a4565b8114610c51575f5ffd5b50565b5f81359050610c6281610c3e565b92915050565b5f60208284031215610c7d57610c7c610644565b5b5f610c8a84828501610c54565b91505092915050565b5f81905092915050565b7f7f000000000000000000000000000000000000000000000000000000000000005f82015250565b5f610cd1600183610c93565b9150610cdc82610c9d565b600182019050919050565b5f81905092915050565b828183375f83830152505050565b5f610d0a8385610ce7565b9350610d17838584610cf1565b82840190509392505050565b7f60000000000000000000000000000000000000000000000000000000000000005f82015250565b5f610d57600283610c93565b9150610d6282610d23565b600282019050919050565b7f55000000000000000000000000000000000000000000000000000000000000005f82015250565b5f610da1600183610c93565b9150610dac82610d6d565b600182019050919050565b7f60010000000000000000000000000000000000000000000000000000000000005f82015250565b5f610deb600283610c93565b9150610df682610db7565b600282019050919050565b7f60020000000000000000000000000000000000000000000000000000000000005f82015250565b5f610e35600283610c93565b9150610e4082610e01565b600282019050919050565b7f60030000000000000000000000000000000000000000000000000000000000005f82015250565b5f610e7f600283610c93565b9150610e8a82610e4b565b600282019050919050565b5f610e9f82610cc5565b9150610eac828a8c610cff565b9150610eb782610d4b565b9150610ec282610d95565b9150610ecd82610cc5565b9150610eda82888a610cff565b9150610ee582610ddf565b9150610ef082610d95565b9150610efb82610cc5565b9150610f08828688610cff565b9150610f1382610e29565b9150610f1e82610d95565b9150610f2982610cc5565b9150610f36828486610cff565b9150610f4182610e73565b9150610f4c82610d95565b91508190509998505050505050505050565b7f4e487b71000000000000000000000000000000000000000000000000000000005f52603260045260245ffd5b5f81519050919050565b8281835e5f83830152505050565b5f610fad82610f8b565b610fb78185610ce7565b9350610fc7818560208601610f95565b80840191505092915050565b5f610fde8285610fa3565b9150610fea8284610fa3565b9150819050939250505056fe60806040523360045f6101000a81548173ffffffffffffffffffffffffffffffffffffffff021916908373ffffffffffffffffffffffffffffffffffffffff1602179055506107e8600181905550610f748061005a5f395ff3fe60806040526004361061008f575f3560e01c8063b4a43ace11610058578063b4a43ace14610143578063bb3ee79d1461016d578063beb0067e14610183578063c27a2fac146101ad578063c5aa8007146101d75761008f565b80620c7019146100935780633250985f146100bd57806370f0d091146100e7578063a647f8841461010f578063af27116814610139575b5f5ffd5b34801561009e575f5ffd5b506100a7610213565b6040516100b49190610896565b60405180910390f35b3480156100c8575f5ffd5b506100d1610259565b6040516100de9190610896565b60405180910390f35b3480156100f2575f5ffd5b5061010d60048036038101906101089190610940565b61025f565b005b34801561011a575f5ffd5b5061012361036e565b6040516101309190610896565b60405180910390f35b610141610374565b005b34801561014e575f5ffd5b506101576103b8565b604051610164919061098d565b60405180910390f35b348015610178575f5ffd5b506101816103df565b005b34801561018e575f5ffd5b50610197610590565b6040516101a49190610896565b60405180910390f35b3480156101b8575f5ffd5b506101c1610596565b6040516101ce919061098d565b60405180910390f35b3480156101e2575f5ffd5b506101fd60048036038101906101f891906109a6565b6105bb565b60405161020a91906109e0565b60405180910390f35b5f5f6102266001546002546003546105d0565b9050804210610238575f915050610256565b6201518042826102489190610a26565b6102529190610a86565b9150505b90565b60015481565b8173ffffffffffffffffffffffffffffffffffffffff163373ffffffffffffffffffffffffffffffffffffffff16141580156102e8575060045f9054906101000a900473ffffffffffffffffffffffffffffffffffffffff1673ffffffffffffffffffffffffffffffffffffffff163373ffffffffffffffffffffffffffffffffffffffff1614155b15610328576040517f08c379a000000000000000000000000000000000000000000000000000000000815260040161031f90610b10565b60405180910390fd5b8060055f8473ffffffffffffffffffffffffffffffffffffffff1673ffffffffffffffffffffffffffffffffffffffff1681526020019081526020015f20819055505050565b60025481565b5f34116103b6576040517f08c379a00000000000000000000000000000000000000000000000000000000081526004016103ad90610b78565b60405180910390fd5b565b5f5f5f9054906101000a900473ffffffffffffffffffffffffffffffffffffffff16905090565b5f5f9054906101000a900473ffffffffffffffffffffffffffffffffffffffff1673ffffffffffffffffffffffffffffffffffffffff163373ffffffffffffffffffffffffffffffffffffffff161461046d576040517f08c379a000000000000000000000000000000000000000000000000000000000815260040161046490610be0565b60405180910390fd5b5f61047f6001546002546003546105d0565b9050804210156104c4576040517f08c379a00000000000000000000000000000000000000000000000000000000081526004016104bb90610c6e565b60405180910390fd5b5f5f5f9054906101000a900473ffffffffffffffffffffffffffffffffffffffff1673ffffffffffffffffffffffffffffffffffffffff164760405161050990610cb9565b5f6040518083038185875af1925050503d805f8114610543576040519150601f19603f3d011682016040523d82523d5f602084013e610548565b606091505b505090508061058c576040517f08c379a000000000000000000000000000000000000000000000000000000000815260040161058390610d17565b60405180910390fd5b5050565b60035481565b60045f9054906101000a900473ffffffffffffffffffffffffffffffffffffffff1681565b6005602052805f5260405f205f915090505481565b5f600183101580156105e35750600c8311155b610622576040517f08c379a000000000000000000000000000000000000000000000000000000000815260040161061990610d7f565b60405180910390fd5b600182101580156106345750601f8211155b610673576040517f08c379a000000000000000000000000000000000000000000000000000000000815260040161066a90610de7565b60405180910390fd5b5f604051806101800160405280601f8152602001601c8152602001601f8152602001601e8152602001601f8152602001601e8152602001601f8152602001601f8152602001601e8152602001601f8152602001601e8152602001601f81525090505f6004866106e29190610e05565b14801561071257505f6064866106f89190610e05565b14158061071157505f6101908661070f9190610e05565b145b5b1561073757601d816001600c811061072d5761072c610e35565b5b6020020181815250505b806001856107459190610a26565b600c811061075657610755610e35565b5b602002015183111561079d576040517f08c379a000000000000000000000000000000000000000000000000000000000815260040161079490610eac565b60405180910390fd5b5f6201518060046107b1886107b29190610a26565b6107bc9190610a86565b6107c69190610eca565b6301e133806107b2886107d99190610a26565b6107e39190610eca565b6107ed9190610f0b565b90505f600190505b8581101561084957620151808360018361080f9190610a26565b600c81106108205761081f610e35565b5b602002015161082f9190610eca565b8261083a9190610f0b565b915080806001019150506107f5565b506201518060018561085b9190610a26565b6108659190610eca565b816108709190610f0b565b905080925050509392505050565b5f819050919050565b6108908161087e565b82525050565b5f6020820190506108a95f830184610887565b92915050565b5f5ffd5b5f73ffffffffffffffffffffffffffffffffffffffff82169050919050565b5f6108dc826108b3565b9050919050565b6108ec816108d2565b81146108f6575f5ffd5b50565b5f81359050610907816108e3565b92915050565b5f819050919050565b61091f8161090d565b8114610929575f5ffd5b50565b5f8135905061093a81610916565b92915050565b5f5f60408385031215610956576109556108af565b5b5f610963858286016108f9565b92505060206109748582860161092c565b9150509250929050565b610987816108d2565b82525050565b5f6020820190506109a05f83018461097e565b92915050565b5f602082840312156109bb576109ba6108af565b5b5f6109c8848285016108f9565b91505092915050565b6109da8161090d565b82525050565b5f6020820190506109f35f8301846109d1565b92915050565b7f4e487b71000000000000000000000000000000000000000000000000000000005f52601160045260245ffd5b5f610a308261087e565b9150610a3b8361087e565b9250828203905081811115610a5357610a526109f9565b5b92915050565b7f4e487b71000000000000000000000000000000000000000000000000000000005f52601260045260245ffd5b5f610a908261087e565b9150610a9b8361087e565b925082610aab57610aaa610a59565b5b828204905092915050565b5f82825260208201905092915050565b7f596f7520617265206e6f742074686520676966744769766572000000000000005f82015250565b5f610afa601983610ab6565b9150610b0582610ac6565b602082019050919050565b5f6020820190508181035f830152610b2781610aee565b9050919050565b7f56616c7565206d7573742062652067726561746572207468616e2030000000005f82015250565b5f610b62601c83610ab6565b9150610b6d82610b2e565b602082019050919050565b5f6020820190508181035f830152610b8f81610b56565b9050919050565b7f596f7520617265206e6f7420746865206f776e657200000000000000000000005f82015250565b5f610bca601583610ab6565b9150610bd582610b96565b602082019050919050565b5f6020820190508181035f830152610bf781610bbe565b9050919050565b7f596f757220626972746864617920686173206e6f7420617272697665642079655f8201527f7421000000000000000000000000000000000000000000000000000000000000602082015250565b5f610c58602283610ab6565b9150610c6382610bfe565b604082019050919050565b5f6020820190508181035f830152610c8581610c4c565b9050919050565b5f81905092915050565b50565b5f610ca45f83610c8c565b9150610caf82610c96565b5f82019050919050565b5f610cc382610c99565b9150819050919050565b7f5472616e73666572206661696c656400000000000000000000000000000000005f82015250565b5f610d01600f83610ab6565b9150610d0c82610ccd565b602082019050919050565b5f6020820190508181035f830152610d2e81610cf5565b9050919050565b7f496e76616c6964206d6f6e7468000000000000000000000000000000000000005f82015250565b5f610d69600d83610ab6565b9150610d7482610d35565b602082019050919050565b5f6020820190508181035f830152610d9681610d5d565b9050919050565b7f496e76616c6964206461790000000000000000000000000000000000000000005f82015250565b5f610dd1600b83610ab6565b9150610ddc82610d9d565b602082019050919050565b5f6020820190508181035f830152610dfe81610dc5565b9050919050565b5f610e0f8261087e565b9150610e1a8361087e565b925082610e2a57610e29610a59565b5b828206905092915050565b7f4e487b71000000000000000000000000000000000000000000000000000000005f52603260045260245ffd5b7f496e76616c69642064617920666f7220676976656e206d6f6e746800000000005f82015250565b5f610e96601b83610ab6565b9150610ea182610e62565b602082019050919050565b5f6020820190508181035f830152610ec381610e8a565b9050919050565b5f610ed48261087e565b9150610edf8361087e565b9250828202610eed8161087e565b91508282048414831517610f0457610f036109f9565b5b5092915050565b5f610f158261087e565b9150610f208361087e565b9250828201905080821115610f3857610f376109f9565b5b9291505056fea264697066735822122002c6e1a5eaa9ebb26ae7d760b52f264eacab9f73be00a94206a257666de91dcb64736f6c634300081c0033a2646970667358221220ec5257ed3919da7998ccee625a90176aed37005ef467fa10c04959d3a110b5be64736f6c634300081c0033","linkReferences":{}},"methodIdentifiers":{"deployBirthdayContract(bytes)":"883db4ff","lastBirthdayContract()":"b6e536ab"},"id":1}