{"abi":[{"type":"constructor","inputs":[],"stateMutability":"payable"},{"type":"function","name":"hyuunnTokenContract","inputs":[],"outputs":[{"name":"","type":"address","internalType":"contract HyuunnToken"}],"stateMutability":"view"},{"type":"function","name":"isSolved","inputs":[],"outputs":[{"name":"","type":"bool","internalType":"bool"}],"stateMutability":"view"}],"bytecode":{"object":"0x608060405260405161001090610183565b604051809103905ff080158015610029573d5f5f3e3d5ffd5b505f5f6101000a81548173ffffffffffffffffffffffffffffffffffffffff021916908373ffffffffffffffffffffffffffffffffffffffff1602179055505f5f9054906101000a900473ffffffffffffffffffffffffffffffffffffffff1673ffffffffffffffffffffffffffffffffffffffff1663b6b55f25678ac7230489e80000806040518363ffffffff1660e01b81526004016100ca91906101db565b5f604051808303818588803b1580156100e1575f5ffd5b505af11580156100f3573d5f5f3e3d5ffd5b50505050505f5f9054906101000a900473ffffffffffffffffffffffffffffffffffffffff1673ffffffffffffffffffffffffffffffffffffffff1663f2fde38b336040518263ffffffff1660e01b81526004016101519190610233565b5f604051808303815f87803b158015610168575f5ffd5b505af115801561017a573d5f5f3e3d5ffd5b5050505061024c565b611f168061042d83390190565b5f819050919050565b5f819050919050565b5f819050919050565b5f6101c56101c06101bb84610190565b6101a2565b610199565b9050919050565b6101d5816101ab565b82525050565b5f6020820190506101ee5f8301846101cc565b92915050565b5f73ffffffffffffffffffffffffffffffffffffffff82169050919050565b5f61021d826101f4565b9050919050565b61022d81610213565b82525050565b5f6020820190506102465f830184610224565b92915050565b6101d4806102595f395ff3fe608060405234801561000f575f5ffd5b5060043610610034575f3560e01c80633b46cf831461003857806364d98f6e14610056575b5f5ffd5b610040610074565b60405161004d9190610152565b60405180910390f35b61005e610098565b60405161006b9190610185565b60405180910390f35b5f5f9054906101000a900473ffffffffffffffffffffffffffffffffffffffff1681565b5f5f5f5f9054906101000a900473ffffffffffffffffffffffffffffffffffffffff1673ffffffffffffffffffffffffffffffffffffffff163114905090565b5f73ffffffffffffffffffffffffffffffffffffffff82169050919050565b5f819050919050565b5f61011a610115610110846100d8565b6100f7565b6100d8565b9050919050565b5f61012b82610100565b9050919050565b5f61013c82610121565b9050919050565b61014c81610132565b82525050565b5f6020820190506101655f830184610143565b92915050565b5f8115159050919050565b61017f8161016b565b82525050565b5f6020820190506101985f830184610176565b9291505056fea2646970667358221220f2200ca343503824605632fdc4bf4e4b651445a4d687c7bbf4d7a9d9556fd8bb64736f6c634300081c003360806040526040518060400160405280600b81526020017f487975756e6e20436f696e000000000000000000000000000000000000000000815250600490816100489190610370565b506040518060400160405280600481526020017f4859554e000000000000000000000000000000000000000000000000000000008152506005908161008d9190610370565b50348015610099575f5ffd5b50335f5f6101000a81548173ffffffffffffffffffffffffffffffffffffffff021916908373ffffffffffffffffffffffffffffffffffffffff160217905550600160025f3373ffffffffffffffffffffffffffffffffffffffff1673ffffffffffffffffffffffffffffffffffffffff1681526020019081526020015f205f6101000a81548160ff02191690831515021790555061043f565b5f81519050919050565b7f4e487b71000000000000000000000000000000000000000000000000000000005f52604160045260245ffd5b7f4e487b71000000000000000000000000000000000000000000000000000000005f52602260045260245ffd5b5f60028204905060018216806101ae57607f821691505b6020821081036101c1576101c061016a565b5b50919050565b5f819050815f5260205f209050919050565b5f6020601f8301049050919050565b5f82821b905092915050565b5f600883026102237fffffffffffffffffffffffffffffffffffffffffffffffffffffffffffffffff826101e8565b61022d86836101e8565b95508019841693508086168417925050509392505050565b5f819050919050565b5f819050919050565b5f61027161026c61026784610245565b61024e565b610245565b9050919050565b5f819050919050565b61028a83610257565b61029e61029682610278565b8484546101f4565b825550505050565b5f5f905090565b6102b56102a6565b6102c0818484610281565b505050565b5b818110156102e3576102d85f826102ad565b6001810190506102c6565b5050565b601f821115610328576102f9816101c7565b610302846101d9565b81016020851015610311578190505b61032561031d856101d9565b8301826102c5565b50505b505050565b5f82821c905092915050565b5f6103485f198460080261032d565b1980831691505092915050565b5f6103608383610339565b9150826002028217905092915050565b61037982610133565b67ffffffffffffffff8111156103925761039161013d565b5b61039c8254610197565b6103a78282856102e7565b5f60209050601f8311600181146103d8575f84156103c6578287015190505b6103d08582610355565b865550610437565b601f1984166103e6866101c7565b5f5b8281101561040d578489015182556001820191506020850194506020810190506103e8565b8683101561042a5784890151610426601f891682610339565b8355505b6001600288020188555050505b505050505050565b611aca8061044c5f395ff3fe6080604052600436106100e7575f3560e01c8063744ee81911610089578063a9059cbb11610058578063a9059cbb146102d9578063b6b55f2514610301578063f2fde38b1461031d578063f6a518c414610345576100e7565b8063744ee81914610231578063853828b61461026f5780638da5cb5b1461028557806395d89b41146102af576100e7565b80632e1a7d4d116100c55780632e1a7d4d1461018d578063313ce567146101b55780634b436c0f146101df57806370a08231146101f5576100e7565b806306fdde03146100eb5780630e50cee51461011557806314f5f42314610151575b5f5ffd5b3480156100f6575f5ffd5b506100ff61035b565b60405161010c9190611322565b60405180910390f35b348015610120575f5ffd5b5061013b600480360381019061013691906113a0565b6103eb565b60405161014891906113e5565b60405180910390f35b34801561015c575f5ffd5b50610177600480360381019061017291906113a0565b610408565b60405161018491906113e5565b60405180910390f35b348015610198575f5ffd5b506101b360048036038101906101ae9190611431565b61045d565b005b3480156101c0575f5ffd5b506101c9610667565b6040516101d69190611477565b60405180910390f35b3480156101ea575f5ffd5b506101f361066f565b005b348015610200575f5ffd5b5061021b600480360381019061021691906113a0565b610856565b604051610228919061149f565b60405180910390f35b34801561023c575f5ffd5b50610257600480360381019061025291906113a0565b61089c565b604051610266939291906114c7565b60405180910390f35b34801561027a575f5ffd5b506102836108ed565b005b348015610290575f5ffd5b50610299610aa7565b6040516102a691906114fc565b60405180910390f35b3480156102ba575f5ffd5b506102c3610acb565b6040516102d09190611322565b60405180910390f35b3480156102e4575f5ffd5b506102ff60048036038101906102fa9190611515565b610b5b565b005b61031b60048036038101906103169190611431565b610d9b565b005b348015610328575f5ffd5b50610343600480360381019061033e91906113a0565b610ebe565b005b348015610350575f5ffd5b50610359610f8e565b005b60606004805461036a90611580565b80601f016020809104026020016040519081016040528092919081815260200182805461039690611580565b80156103e15780601f106103b8576101008083540402835291602001916103e1565b820191905f5260205f20905b8154815290600101906020018083116103c457829003601f168201915b5050505050905090565b6002602052805f5260405f205f915054906101000a900460ff1681565b5f60015f8373ffffffffffffffffffffffffffffffffffffffff1673ffffffffffffffffffffffffffffffffffffffff1681526020019081526020015f205f0160149054906101000a900460ff169050919050565b3360025f8273ffffffffffffffffffffffffffffffffffffffff1673ffffffffffffffffffffffffffffffffffffffff1681526020019081526020015f205f9054906101000a900460ff166104e7576040517f08c379a00000000000000000000000000000000000000000000000000000000081526004016104de906115fa565b60405180910390fd5b8160035f3373ffffffffffffffffffffffffffffffffffffffff1673ffffffffffffffffffffffffffffffffffffffff1681526020019081526020015f20541015610567576040517f08c379a000000000000000000000000000000000000000000000000000000000815260040161055e90611662565b60405180910390fd5b5f3373ffffffffffffffffffffffffffffffffffffffff168360405161058c906116ad565b5f6040518083038185875af1925050503d805f81146105c6576040519150601f19603f3d011682016040523d82523d5f602084013e6105cb565b606091505b505090508061060f576040517f08c379a00000000000000000000000000000000000000000000000000000000081526004016106069061170b565b60405180910390fd5b8260035f3373ffffffffffffffffffffffffffffffffffffffff1673ffffffffffffffffffffffffffffffffffffffff1681526020019081526020015f205f82825461065b9190611756565b92505081905550505050565b5f6012905090565b5f3373ffffffffffffffffffffffffffffffffffffffff163b1480156106e157505f5f9054906101000a900473ffffffffffffffffffffffffffffffffffffffff1673ffffffffffffffffffffffffffffffffffffffff163373ffffffffffffffffffffffffffffffffffffffff1614155b610720576040517f08c379a0000000000000000000000000000000000000000000000000000000008152600401610717906117d3565b60405180910390fd5b60015f3373ffffffffffffffffffffffffffffffffffffffff1673ffffffffffffffffffffffffffffffffffffffff1681526020019081526020015f205f0160149054906101000a900460ff16156107ad576040517f08c379a00000000000000000000000000000000000000000000000000000000081526004016107a49061183b565b60405180910390fd5b5f60015f3373ffffffffffffffffffffffffffffffffffffffff1673ffffffffffffffffffffffffffffffffffffffff1681526020019081526020015f20905033815f015f6101000a81548173ffffffffffffffffffffffffffffffffffffffff021916908373ffffffffffffffffffffffffffffffffffffffff1602179055506001815f0160146101000a81548160ff02191690831515021790555043816001018190555050565b5f60035f8373ffffffffffffffffffffffffffffffffffffffff1673ffffffffffffffffffffffffffffffffffffffff1681526020019081526020015f20549050919050565b6001602052805f5260405f205f91509050805f015f9054906101000a900473ffffffffffffffffffffffffffffffffffffffff1690805f0160149054906101000a900460ff16908060010154905083565b3360025f8273ffffffffffffffffffffffffffffffffffffffff1673ffffffffffffffffffffffffffffffffffffffff1681526020019081526020015f205f9054906101000a900460ff16610977576040517f08c379a000000000000000000000000000000000000000000000000000000000815260040161096e906115fa565b60405180910390fd5b5f60035f3373ffffffffffffffffffffffffffffffffffffffff1673ffffffffffffffffffffffffffffffffffffffff1681526020019081526020015f205490505f3373ffffffffffffffffffffffffffffffffffffffff16826040516109dd906116ad565b5f6040518083038185875af1925050503d805f8114610a17576040519150601f19603f3d011682016040523d82523d5f602084013e610a1c565b606091505b5050905080610a60576040517f08c379a0000000000000000000000000000000000000000000000000000000008152600401610a579061170b565b60405180910390fd5b5f60035f3373ffffffffffffffffffffffffffffffffffffffff1673ffffffffffffffffffffffffffffffffffffffff1681526020019081526020015f2081905550505050565b5f5f9054906101000a900473ffffffffffffffffffffffffffffffffffffffff1681565b606060058054610ada90611580565b80601f0160208091040260200160405190810160405280929190818152602001828054610b0690611580565b8015610b515780601f10610b2857610100808354040283529160200191610b51565b820191905f5260205f20905b815481529060010190602001808311610b3457829003601f168201915b5050505050905090565b3360025f8273ffffffffffffffffffffffffffffffffffffffff1673ffffffffffffffffffffffffffffffffffffffff1681526020019081526020015f205f9054906101000a900460ff16610be5576040517f08c379a0000000000000000000000000000000000000000000000000000000008152600401610bdc906115fa565b60405180910390fd5b8260025f8273ffffffffffffffffffffffffffffffffffffffff1673ffffffffffffffffffffffffffffffffffffffff1681526020019081526020015f205f9054906101000a900460ff16610c6f576040517f08c379a0000000000000000000000000000000000000000000000000000000008152600401610c66906115fa565b60405180910390fd5b8260035f3373ffffffffffffffffffffffffffffffffffffffff1673ffffffffffffffffffffffffffffffffffffffff1681526020019081526020015f20541015610cef576040517f08c379a0000000000000000000000000000000000000000000000000000000008152600401610ce690611662565b60405180910390fd5b8260035f3373ffffffffffffffffffffffffffffffffffffffff1673ffffffffffffffffffffffffffffffffffffffff1681526020019081526020015f205f828254610d3b9190611756565b925050819055508260035f8673ffffffffffffffffffffffffffffffffffffffff1673ffffffffffffffffffffffffffffffffffffffff1681526020019081526020015f205f828254610d8e9190611859565b9250508190555050505050565b3360025f8273ffffffffffffffffffffffffffffffffffffffff1673ffffffffffffffffffffffffffffffffffffffff1681526020019081526020015f205f9054906101000a900460ff16610e25576040517f08c379a0000000000000000000000000000000000000000000000000000000008152600401610e1c906115fa565b60405180910390fd5b813414610e67576040517f08c379a0000000000000000000000000000000000000000000000000000000008152600401610e5e906118d6565b60405180910390fd5b8160035f3373ffffffffffffffffffffffffffffffffffffffff1673ffffffffffffffffffffffffffffffffffffffff1681526020019081526020015f205f828254610eb39190611859565b925050819055505050565b5f5f9054906101000a900473ffffffffffffffffffffffffffffffffffffffff1673ffffffffffffffffffffffffffffffffffffffff163373ffffffffffffffffffffffffffffffffffffffff1614610f4c576040517f08c379a0000000000000000000000000000000000000000000000000000000008152600401610f439061193e565b60405180910390fd5b805f5f6101000a81548173ffffffffffffffffffffffffffffffffffffffff021916908373ffffffffffffffffffffffffffffffffffffffff16021790555050565b5f3373ffffffffffffffffffffffffffffffffffffffff163b14801561100057505f5f9054906101000a900473ffffffffffffffffffffffffffffffffffffffff1673ffffffffffffffffffffffffffffffffffffffff163373ffffffffffffffffffffffffffffffffffffffff1614155b61103f576040517f08c379a0000000000000000000000000000000000000000000000000000000008152600401611036906117d3565b60405180910390fd5b60025f3373ffffffffffffffffffffffffffffffffffffffff1673ffffffffffffffffffffffffffffffffffffffff1681526020019081526020015f205f9054906101000a900460ff16156110c9576040517f08c379a00000000000000000000000000000000000000000000000000000000081526004016110c0906119a6565b60405180910390fd5b60015f3373ffffffffffffffffffffffffffffffffffffffff1673ffffffffffffffffffffffffffffffffffffffff1681526020019081526020015f205f0160149054906101000a900460ff16611155576040517f08c379a000000000000000000000000000000000000000000000000000000000815260040161114c90611a0e565b60405180910390fd5b600160025f3373ffffffffffffffffffffffffffffffffffffffff1673ffffffffffffffffffffffffffffffffffffffff1681526020019081526020015f205f6101000a81548160ff0219169083151502179055505f60015f3373ffffffffffffffffffffffffffffffffffffffff1673ffffffffffffffffffffffffffffffffffffffff1681526020019081526020015f20905080600101544303611230576040517f08c379a000000000000000000000000000000000000000000000000000000000815260040161122790611a76565b60405180910390fd5b5f815f015f6101000a81548173ffffffffffffffffffffffffffffffffffffffff021916908373ffffffffffffffffffffffffffffffffffffffff1602179055505f815f0160146101000a81548160ff0219169083151502179055505f816001018190555050565b5f81519050919050565b5f82825260208201905092915050565b5f5b838110156112cf5780820151818401526020810190506112b4565b5f8484015250505050565b5f601f19601f8301169050919050565b5f6112f482611298565b6112fe81856112a2565b935061130e8185602086016112b2565b611317816112da565b840191505092915050565b5f6020820190508181035f83015261133a81846112ea565b905092915050565b5f5ffd5b5f73ffffffffffffffffffffffffffffffffffffffff82169050919050565b5f61136f82611346565b9050919050565b61137f81611365565b8114611389575f5ffd5b50565b5f8135905061139a81611376565b92915050565b5f602082840312156113b5576113b4611342565b5b5f6113c28482850161138c565b91505092915050565b5f8115159050919050565b6113df816113cb565b82525050565b5f6020820190506113f85f8301846113d6565b92915050565b5f819050919050565b611410816113fe565b811461141a575f5ffd5b50565b5f8135905061142b81611407565b92915050565b5f6020828403121561144657611445611342565b5b5f6114538482850161141d565b91505092915050565b5f60ff82169050919050565b6114718161145c565b82525050565b5f60208201905061148a5f830184611468565b92915050565b611499816113fe565b82525050565b5f6020820190506114b25f830184611490565b92915050565b6114c181611365565b82525050565b5f6060820190506114da5f8301866114b8565b6114e760208301856113d6565b6114f46040830184611490565b949350505050565b5f60208201905061150f5f8301846114b8565b92915050565b5f5f6040838503121561152b5761152a611342565b5b5f6115388582860161138c565b92505060206115498582860161141d565b9150509250929050565b7f4e487b71000000000000000000000000000000000000000000000000000000005f52602260045260245ffd5b5f600282049050600182168061159757607f821691505b6020821081036115aa576115a9611553565b5b50919050565b7f596f7520617265206e6f742072656769737465726564000000000000000000005f82015250565b5f6115e46016836112a2565b91506115ef826115b0565b602082019050919050565b5f6020820190508181035f830152611611816115d8565b9050919050565b7f496e73756666696369656e742062616c616e63650000000000000000000000005f82015250565b5f61164c6014836112a2565b915061165782611618565b602082019050919050565b5f6020820190508181035f83015261167981611640565b9050919050565b5f81905092915050565b50565b5f6116985f83611680565b91506116a38261168a565b5f82019050919050565b5f6116b78261168d565b9150819050919050565b7f5769746864726177206661696c656400000000000000000000000000000000005f82015250565b5f6116f5600f836112a2565b9150611700826116c1565b602082019050919050565b5f6020820190508181035f830152611722816116e9565b9050919050565b7f4e487b71000000000000000000000000000000000000000000000000000000005f52601160045260245ffd5b5f611760826113fe565b915061176b836113fe565b925082820390508181111561178357611782611729565b5b92915050565b7f596f7520617265206e6f742074686520636f6e747261637400000000000000005f82015250565b5f6117bd6018836112a2565b91506117c882611789565b602082019050919050565b5f6020820190508181035f8301526117ea816117b1565b9050919050565b7f596f75206861766520616c7265616479206170706c69656400000000000000005f82015250565b5f6118256018836112a2565b9150611830826117f1565b602082019050919050565b5f6020820190508181035f83015261185281611819565b9050919050565b5f611863826113fe565b915061186e836113fe565b925082820190508082111561188657611885611729565b5b92915050565b7f496e76616c696420616d6f756e740000000000000000000000000000000000005f82015250565b5f6118c0600e836112a2565b91506118cb8261188c565b602082019050919050565b5f6020820190508181035f8301526118ed816118b4565b9050919050565b7f596f7520617265206e6f7420746865206f776e657200000000000000000000005f82015250565b5f6119286015836112a2565b9150611933826118f4565b602082019050919050565b5f6020820190508181035f8301526119558161191c565b9050919050565b7f596f752061726520616c726561647920726567697374657265640000000000005f82015250565b5f611990601a836112a2565b915061199b8261195c565b602082019050919050565b5f6020820190508181035f8301526119bd81611984565b9050919050565b7f596f752068617665206e6f74206170706c6965640000000000000000000000005f82015250565b5f6119f86014836112a2565b9150611a03826119c4565b602082019050919050565b5f6020820190508181035f830152611a25816119ec565b9050919050565b7f496e76616c696420626c6f636b4e756d626572000000000000000000000000005f82015250565b5f611a606013836112a2565b9150611a6b82611a2c565b602082019050919050565b5f6020820190508181035f830152611a8d81611a54565b905091905056fea26469706673582212200118d31e72d944b501f20457a52924561727811ee5216a812824931de538e6f064736f6c634300081c0033","linkReferences":{}},"methodIdentifiers":{"hyuunnTokenContract()":"3b46cf83","isSolved()":"64d98f6e"},"id":1}