{"abi":[{"type":"constructor","inputs":[],"stateMutability":"payable"},{"type":"function","name":"birthDay","inputs":[],"outputs":[{"name":"","type":"uint256","internalType":"uint256"}],"stateMutability":"view"},{"type":"function","name":"birthMonth","inputs":[],"outputs":[{"name":"","type":"uint256","internalType":"uint256"}],"stateMutability":"view"},{"type":"function","name":"birthYear","inputs":[],"outputs":[{"name":"","type":"uint256","internalType":"uint256"}],"stateMutability":"view"},{"type":"function","name":"birthdayFacotry","inputs":[],"outputs":[{"name":"","type":"address","internalType":"address"}],"stateMutability":"view"},{"type":"function","name":"birthdayMessages","inputs":[{"name":"","type":"address","internalType":"address"}],"outputs":[{"name":"","type":"bytes32","internalType":"bytes32"}],"stateMutability":"view"},{"type":"function","name":"donationGift","inputs":[],"outputs":[],"stateMutability":"payable"},{"type":"function","name":"getBirthdayPerson","inputs":[],"outputs":[{"name":"","type":"address","internalType":"address"}],"stateMutability":"view"},{"type":"function","name":"getRemainingDays","inputs":[],"outputs":[{"name":"","type":"uint256","internalType":"uint256"}],"stateMutability":"view"},{"type":"function","name":"receiveGift","inputs":[],"outputs":[],"stateMutability":"nonpayable"},{"type":"function","name":"setBirthdayMessage","inputs":[{"name":"giver","type":"address","internalType":"address"},{"name":"_message","type":"bytes32","internalType":"bytes32"}],"outputs":[],"stateMutability":"nonpayable"}],"bytecode":{"object":"0x60806040523360045f6101000a81548173ffffffffffffffffffffffffffffffffffffffff021916908373ffffffffffffffffffffffffffffffffffffffff1602179055506107e8600181905550610f748061005a5f395ff3fe60806040526004361061008f575f3560e01c8063b4a43ace11610058578063b4a43ace14610143578063bb3ee79d1461016d578063beb0067e14610183578063c27a2fac146101ad578063c5aa8007146101d75761008f565b80620c7019146100935780633250985f146100bd57806370f0d091146100e7578063a647f8841461010f578063af27116814610139575b5f5ffd5b34801561009e575f5ffd5b506100a7610213565b6040516100b49190610896565b60405180910390f35b3480156100c8575f5ffd5b506100d1610259565b6040516100de9190610896565b60405180910390f35b3480156100f2575f5ffd5b5061010d60048036038101906101089190610940565b61025f565b005b34801561011a575f5ffd5b5061012361036e565b6040516101309190610896565b60405180910390f35b610141610374565b005b34801561014e575f5ffd5b506101576103b8565b604051610164919061098d565b60405180910390f35b348015610178575f5ffd5b506101816103df565b005b34801561018e575f5ffd5b50610197610590565b6040516101a49190610896565b60405180910390f35b3480156101b8575f5ffd5b506101c1610596565b6040516101ce919061098d565b60405180910390f35b3480156101e2575f5ffd5b506101fd60048036038101906101f891906109a6565b6105bb565b60405161020a91906109e0565b60405180910390f35b5f5f6102266001546002546003546105d0565b9050804210610238575f915050610256565b6201518042826102489190610a26565b6102529190610a86565b9150505b90565b60015481565b8173ffffffffffffffffffffffffffffffffffffffff163373ffffffffffffffffffffffffffffffffffffffff16141580156102e8575060045f9054906101000a900473ffffffffffffffffffffffffffffffffffffffff1673ffffffffffffffffffffffffffffffffffffffff163373ffffffffffffffffffffffffffffffffffffffff1614155b15610328576040517f08c379a000000000000000000000000000000000000000000000000000000000815260040161031f90610b10565b60405180910390fd5b8060055f8473ffffffffffffffffffffffffffffffffffffffff1673ffffffffffffffffffffffffffffffffffffffff1681526020019081526020015f20819055505050565b60025481565b5f34116103b6576040517f08c379a00000000000000000000000000000000000000000000000000000000081526004016103ad90610b78565b60405180910390fd5b565b5f5f5f9054906101000a900473ffffffffffffffffffffffffffffffffffffffff16905090565b5f5f9054906101000a900473ffffffffffffffffffffffffffffffffffffffff1673ffffffffffffffffffffffffffffffffffffffff163373ffffffffffffffffffffffffffffffffffffffff161461046d576040517f08c379a000000000000000000000000000000000000000000000000000000000815260040161046490610be0565b60405180910390fd5b5f61047f6001546002546003546105d0565b9050804210156104c4576040517f08c379a00000000000000000000000000000000000000000000000000000000081526004016104bb90610c6e565b60405180910390fd5b5f5f5f9054906101000a900473ffffffffffffffffffffffffffffffffffffffff1673ffffffffffffffffffffffffffffffffffffffff164760405161050990610cb9565b5f6040518083038185875af1925050503d805f8114610543576040519150601f19603f3d011682016040523d82523d5f602084013e610548565b606091505b505090508061058c576040517f08c379a000000000000000000000000000000000000000000000000000000000815260040161058390610d17565b60405180910390fd5b5050565b60035481565b60045f9054906101000a900473ffffffffffffffffffffffffffffffffffffffff1681565b6005602052805f5260405f205f915090505481565b5f600183101580156105e35750600c8311155b610622576040517f08c379a000000000000000000000000000000000000000000000000000000000815260040161061990610d7f565b60405180910390fd5b600182101580156106345750601f8211155b610673576040517f08c379a000000000000000000000000000000000000000000000000000000000815260040161066a90610de7565b60405180910390fd5b5f604051806101800160405280601f8152602001601c8152602001601f8152602001601e8152602001601f8152602001601e8152602001601f8152602001601f8152602001601e8152602001601f8152602001601e8152602001601f81525090505f6004866106e29190610e05565b14801561071257505f6064866106f89190610e05565b14158061071157505f6101908661070f9190610e05565b145b5b1561073757601d816001600c811061072d5761072c610e35565b5b6020020181815250505b806001856107459190610a26565b600c811061075657610755610e35565b5b602002015183111561079d576040517f08c379a000000000000000000000000000000000000000000000000000000000815260040161079490610eac565b60405180910390fd5b5f6201518060046107b1886107b29190610a26565b6107bc9190610a86565b6107c69190610eca565b6301e133806107b2886107d99190610a26565b6107e39190610eca565b6107ed9190610f0b565b90505f600190505b8581101561084957620151808360018361080f9190610a26565b600c81106108205761081f610e35565b5b602002015161082f9190610eca565b8261083a9190610f0b565b915080806001019150506107f5565b506201518060018561085b9190610a26565b6108659190610eca565b816108709190610f0b565b905080925050509392505050565b5f819050919050565b6108908161087e565b82525050565b5f6020820190506108a95f830184610887565b92915050565b5f5ffd5b5f73ffffffffffffffffffffffffffffffffffffffff82169050919050565b5f6108dc826108b3565b9050919050565b6108ec816108d2565b81146108f6575f5ffd5b50565b5f81359050610907816108e3565b92915050565b5f819050919050565b61091f8161090d565b8114610929575f5ffd5b50565b5f8135905061093a81610916565b92915050565b5f5f60408385031215610956576109556108af565b5b5f610963858286016108f9565b92505060206109748582860161092c565b9150509250929050565b610987816108d2565b82525050565b5f6020820190506109a05f83018461097e565b92915050565b5f602082840312156109bb576109ba6108af565b5b5f6109c8848285016108f9565b91505092915050565b6109da8161090d565b82525050565b5f6020820190506109f35f8301846109d1565b92915050565b7f4e487b71000000000000000000000000000000000000000000000000000000005f52601160045260245ffd5b5f610a308261087e565b9150610a3b8361087e565b9250828203905081811115610a5357610a526109f9565b5b92915050565b7f4e487b71000000000000000000000000000000000000000000000000000000005f52601260045260245ffd5b5f610a908261087e565b9150610a9b8361087e565b925082610aab57610aaa610a59565b5b828204905092915050565b5f82825260208201905092915050565b7f596f7520617265206e6f742074686520676966744769766572000000000000005f82015250565b5f610afa601983610ab6565b9150610b0582610ac6565b602082019050919050565b5f6020820190508181035f830152610b2781610aee565b9050919050565b7f56616c7565206d7573742062652067726561746572207468616e2030000000005f82015250565b5f610b62601c83610ab6565b9150610b6d82610b2e565b602082019050919050565b5f6020820190508181035f830152610b8f81610b56565b9050919050565b7f596f7520617265206e6f7420746865206f776e657200000000000000000000005f82015250565b5f610bca601583610ab6565b9150610bd582610b96565b602082019050919050565b5f6020820190508181035f830152610bf781610bbe565b9050919050565b7f596f757220626972746864617920686173206e6f7420617272697665642079655f8201527f7421000000000000000000000000000000000000000000000000000000000000602082015250565b5f610c58602283610ab6565b9150610c6382610bfe565b604082019050919050565b5f6020820190508181035f830152610c8581610c4c565b9050919050565b5f81905092915050565b50565b5f610ca45f83610c8c565b9150610caf82610c96565b5f82019050919050565b5f610cc382610c99565b9150819050919050565b7f5472616e73666572206661696c656400000000000000000000000000000000005f82015250565b5f610d01600f83610ab6565b9150610d0c82610ccd565b602082019050919050565b5f6020820190508181035f830152610d2e81610cf5565b9050919050565b7f496e76616c6964206d6f6e7468000000000000000000000000000000000000005f82015250565b5f610d69600d83610ab6565b9150610d7482610d35565b602082019050919050565b5f6020820190508181035f830152610d9681610d5d565b9050919050565b7f496e76616c6964206461790000000000000000000000000000000000000000005f82015250565b5f610dd1600b83610ab6565b9150610ddc82610d9d565b602082019050919050565b5f6020820190508181035f830152610dfe81610dc5565b9050919050565b5f610e0f8261087e565b9150610e1a8361087e565b925082610e2a57610e29610a59565b5b828206905092915050565b7f4e487b71000000000000000000000000000000000000000000000000000000005f52603260045260245ffd5b7f496e76616c69642064617920666f7220676976656e206d6f6e746800000000005f82015250565b5f610e96601b83610ab6565b9150610ea182610e62565b602082019050919050565b5f6020820190508181035f830152610ec381610e8a565b9050919050565b5f610ed48261087e565b9150610edf8361087e565b9250828202610eed8161087e565b91508282048414831517610f0457610f036109f9565b5b5092915050565b5f610f158261087e565b9150610f208361087e565b9250828201905080821115610f3857610f376109f9565b5b9291505056fea264697066735822122002c6e1a5eaa9ebb26ae7d760b52f264eacab9f73be00a94206a257666de91dcb64736f6c634300081c0033","linkReferences":{}},"methodIdentifiers":{"birthDay()":"beb0067e","birthMonth()":"a647f884","birthYear()":"3250985f","birthdayFacotry()":"c27a2fac","birthdayMessages(address)":"c5aa8007","donationGift()":"af271168","getBirthdayPerson()":"b4a43ace","getRemainingDays()":"000c7019","receiveGift()":"bb3ee79d","setBirthdayMessage(address,bytes32)":"70f0d091"},"id":0}